:020000040800F2
:100000009035012029030008410E0008430E000826
:10001000470E00084B0E00084F0E000800000000BD
:10002000000000000000000000000000690200085D
:10003000530E000800000000C502000863430008DA
:100040004303000843030008430300084303000878
:100050004303000843030008430300084303000868
:100060004303000843030008430300084303000858
:100070004303000843030008430300084303000848
:100080004303000843030008430300084303000838
:100090004303000843030008430300084303000828
:1000A0004303000843030008430300084303000818
:1000B0004303000843030008430300084303000808
:1000C00043030008430300084303000843030008F8
:1000D00043030008430300084303000843030008E8
:1000E00043030008430300084303000843030008D8
:1000F00043030008430300084303000843030008C8
:1001000043030008430300084303000843030008B7
:1001100043030008430300084303000843030008A7
:100120004303000843030008430300084303000897
:100130004303000843030008430300084303000887
:100140004303000843030008430300084303000877
:100150004303000843030008430300084303000867
:100160004303000843030008430300084303000857
:100170004303000843030008430300084303000847
:10018000430300084303000800F002F800F05CF8A5
:100190000AA090E8000C82448344AAF10107DA45E2
:1001A00001D100F051F8AFF2090EBAE80F0013F0D8
:1001B000010F18BFFB1A43F001031847E45F00006A
:1001C000046000000A444FF0000C10F8013B13F0EB
:1001D000070408BF10F8014B1D1108BF10F8015BA0
:1001E000641E05D010F8016B641E01F8016BF9D193
:1001F00013F0080F1EBF10F8014BAD1C0C1B09D1EA
:100200006D1E58BF01F801CBFAD505E014F8016B5B
:1002100001F8016B6D1EF9D59142D6D370470000ED
:100220000023002400250026103A28BF78C1FBD8FF
:10023000520728BF30C148BF0B6070471FB505F09B
:1002400090FF1FBD10B510BD05F070FB1146FFF704
:10025000F5FF00F09EFD05F08EFB03B4FFF7F2FF03
:1002600003BC05F095FB00002C4B19680868B0E84A
:10027000F04F80F30988BFF36F8F4FF0000080F3D9
:10028000118870470000000008480068006880F38B
:1002900008884FF0000080F3148862B661B6BFF39F
:1002A0004F8FBFF36F8F00DF00BF00BF08ED00E08E
:1002B000DFF80C00016841F470010160704700BF75
:1002C00088ED00E0EFF30980BFF36F8F134B1A68DE
:1002D0001EF0100F08BF20ED108A20E9F04F1060CB
:1002E00009B44FF0500080F31188BFF34F8FBFF374
:1002F0006F8F02F000FC4FF0000080F3118809BC02
:1003000019680868B0E8F04F1EF0100F08BFB0EC95
:10031000108A80F30988BFF36F8F7047180100209F
:10032000EFF30580704700000948804709480047FF
:10033000FEE7FEE7FEE7FEE7FEE7FEE7FEE7FEE795
:10034000FEE7FEE704480549054A064B70470000F2
:100350004504000889010008902F012090350120F4
:1003600090310120903101200CB5002001900090C7
:100370007648006840F480307449086000BF7348D4
:10038000006800F4003000900198401C0190009833
:1003900018B90198B0F5A04FF1D16C48006800F48D
:1003A000003010B10120009001E000200090009882
:1003B000012846D165484030006840F080506349CC
:1003C000403108606248006840F44040604908607D
:1003D0005E48083000685D490831086008460068DA
:1003E00040F4004008600846006840F4A0500860EF
:1003F0005848091F0860081F006840F08070091FF6
:10040000086000BF5148006800F000700028F9D073
:1004100040F20570504908604C480830006820F0F0
:1004200003004A49083108600846006840F00200AD
:10043000086000BF45480830006800F00C0008283C
:10044000F8D10CBD10B54548006840F47000434930
:1004500008603E48006840F001003C490860002008
:100460003A4908310860394800683D490840374931
:1004700008603C48091D0860081F006820F48020BF
:10048000091F0860002031490C310860FFF76CFF3C
:100490004FF0006031498039086010BD70B5002010
:1004A0000022022300240221284D08352D6805F082
:1004B0000C0020B1042806D0082834D107E02A4DCA
:1004C0002A4E356033E02A4D284E35602FE01F4D0F
:1004D0002D1D2D68C5F380541C4D2D1D2D6805F074
:1004E0003F0154B1224DB5FBF1F5184E361D36686B
:1004F000C6F3881605FB06F209E01B4DB5FBF1F5C6
:10050000124E361D3668C6F3881605FB06F20F4DEF
:100510002D1D2D68C5F301456D1C6B00B2FBF3F575
:10052000124E356003E0104D104E356000BF00BF25
:10053000064D08352D68C5F303150E4E705D0B4D45
:100540002D68C540094E356070BD0000003802407E
:100550000070004008544007003C024088ED00E075
:10056000FFFFF6FE103000240024F40000000020FD
:1005700000127A00040000201CB50121082004F0BC
:10058000A3FD4FF47040009001208DF8040000207E
:100590008DF8060002208DF8070003208DF8050075
:1005A0006946F84804F0C6F81CBD10B54FF6FF7157
:1005B000F44804F03BF910BD1CB50121084604F0D5
:1005C00083FD00208DF804008DF8060001200090C6
:1005D00002208DF8070003208DF805006946EA48DF
:1005E00004F0A8F81CBD0121E84A1170704770475B
:1005F00008B5AFF2050000231A464FF4967100903B
:10060000E3A003F0ACFCE7490860AFF2250000234B
:100610001A464FF496710090E3A003F0A0FCE7495E
:10062000086008BD10B504464FF6FF71D54804F0C8
:10063000FFF82146D34804F0F9F810BDF0EE400A67
:100640009FEDDF1AB0EE410A90F8401000EB8103F5
:10065000C3ED000A002214E000F1200303EB820343
:10066000D3ED001A8B1803F0070300EB830393ED1F
:10067000002AB0EE401A01EE821AB0EE410A531C75
:100680009AB2082AE8DB4B1C99B201F0070180F806
:10069000401070472DED048B82B000BF4FF0FF3249
:1006A00001A9C848006801F09EFA00F018FD012178
:1006B000C54804F084FF0020C449086068E00221B6
:1006C000C14805F028F800285DD0C148008881B2F3
:1006D000BD4804F0E9FFBD48006800F00100E8B340
:1006E000019805F0CDFC41EC180BBA4890ED000BD9
:1006F00053EC102B51EC180B05F084F9B54A03C2EA
:100700009FEDB50B53EC102BB24890ED000B51EC64
:10071000100B05F095FB0CD29FEDB10B53EC102B99
:10072000AC4890ED000B51EC100B05F0BFFBA94A53
:1007300003C2A84890ED000B51EC100B05F030F906
:1007400008EE100AB0EE480AA748FFF777FFA7485F
:1007500080ED000A006805F093FC00E00EE041EC3B
:10076000190B9FEDA30B53EC102B05F06BFA41EC2A
:10077000180B05F0FBF900B2954908809348006812
:10078000401C9249086091480068401C8F490860ED
:100790008E4800689849884291D300F0A0FC7DE71C
:1007A00010B5044600231A4604F118018548006874
:1007B00000F0BCFE10BD0146904A88681268B2FB8A
:1007C000F0F300FB13200A69904201D30120704727
:1007D0000020FCE70146D1E90002904201D101204E
:1007E00070470020FCE730B50246C2EBC200844DE2
:1007F00005EB8003C1EBC10005EB8004D868E56818
:10080000A84201DA084630BD1046FCE72DE9F04366
:1008100004460D46C4EBC400794901EB8007C5EBE3
:10082000C50001EB80083846FFF7C5FF814640460A
:10083000FFF7C1FF814505D129462046FFF7D3FFC9
:10084000064607E04046FFF7B6FF08B1204600E045
:10085000284606463046BDE8F0830146674A886868
:100860001268B2FBF0F300FB13200A69101A7047FC
:100870002DE9F04780468946C8EBC800604901EB86
:100880008006C9EBC90001EB80073046FFF7E5FFA2
:10089000D6E90012891A451A3846FFF7DEFFD7E974
:1008A0000012891A441A002D01DA002C01DBA5423E
:1008B00005D149464046FFF796FF824610E0002CDE
:1008C00001DB002D06DA002C01DA404600E0484644
:1008D000824605E0AC4201DA484600E040468246E6
:1008E0005046BDE8F0872DE9F04106460F46C6EBBD
:1008F000C601434A02EB8100FFF7AFFF0546C7EB95
:10090000C7013F4A02EB8100FFF7A7FF0446002D15
:1009100001DC002C01DDA54205D139463046FFF748
:1009200062FF804610E0002C01DD002D06DC002C6B
:1009300001DC304600E03846804605E0AC4201DA92
:10094000384600E0304680464046BDE8F0812DE95B
:10095000F04105460E46C5EBC500294901EB80076D
:10096000C6EBC60001EB80084046FFF733FF08B135
:100970002C464DE03846FFF72DFF08B1344647E0DE
:1009800040E00000000C024000000240F4000020A3
:100990004C6F6E672050726573732074696D657259
:1009A0000000000004010020446F75626C65205057
:1009B000726573732074696D657200000801002010
:1009C0000000000014010020003C00402000002036
:1009D0002400002028000020000000000000F03F5C
:1009E00000000000000000409C01002030000020BA
:1009F0000000000000407F4080841E00F8000020BE
:100A00003400002031462846F34A126890470446D5
:100A10002046BDE8F08100BF4FF0FF31EF4800688D
:100A200000F0B2FE0025002414E0C4EBC400EC4941
:100A300001EB80063046FFF710FF50B93046FFF754
:100A4000C9FE30B9C4EBC400E54901EB8000808ADF
:100A50000543641C042CE8DB642001F01CFF2946DC
:100A6000E04803F0EEFE322001F015FF2946DD4894
:100A700003F0E7FE322001F00EFF2946D94803F0CB
:100A8000E0FE642001F007FF2946D64803F0D9FEB6
:100A9000D5480068401CD4490860BDE70020D24911
:100AA000086000BF07E00021C0EBC002CC4B03EBA5
:100AB00082025160401C0428F5DBAFF2AF20C6492A
:100AC00008600320C949087070472DE9F0414FF0D4
:100AD000000864E0C5490978481CC11700EB917112
:100AE0008910A0EB8101CCB2C4EBC400BC4901EB7E
:100AF0008000806808B900204860012624E0BB49D6
:100B000009783144481CC11700EB91718910A0EBA2
:100B10008101CDB2C5EBC500B14901EB8000806811
:100B2000B1490968B1FBF0F200FB121030B90020A6
:100B3000C5EBC501AA4A02EB81014860294620465F
:100B4000FFF705FF0446761C042ED8DB04EB840077
:100B5000A74901EB8007C4EBC401A14A02EB810065
:100B6000FFF738FE48B14FF47A7001F094FE9E48CA
:100B70000068401C9C49086010E09C4804700023F9
:100B80001A461946386900F0D1FC00231A46194666
:100B90009248006800F0CAFC4FF0010800BFB8F1AD
:100BA000000F03D193480078002893D1BDE8F0816D
:100BB00010B501208F490870FFF770FFFFF785FF20
:100BC00010BD00208B4908707047704708B5FFF7CB
:100BD000EFFF00200346024603210090864800688C
:100BE00002F0A0FF08BD704700BF0121834803F059
:100BF00003FE00281DDD00BF0121804803F0FCFD3D
:100C00000028F9D01E2001F046FE01217B4803F0A8
:100C1000F3FD00280DDD7748007828B901207549DB
:100C20000870FFF7C5FF04E0FFF7CBFF0020714914
:100C3000087000BF0121714803F0DEFD0028F9D0E3
:100C4000D3E705462E46346800BF4FF0FF313069C8
:100C500000F09AFD0028F8D0A18A624803F0E6FD72
:100C60004FF4FA7001F017FEA18A5E4803F0E0FD30
:100C70006068401C6060D4E90010884206D12046BC
:100C8000FFF78EFDA18A574803F0D2FD4FF4FA70AA
:100C900001F001FEFFF719FFD7E77CB500251DE045
:100CA00005EB8500524901EB8004C5EBC5004C49BA
:100CB00001EB80002060A56003220021012000F0EC
:100CC0007DFB20610121A068CDE900102346802230
:100CD000AFF29100616801F060FB6D1C042DDFDB59
:100CE0000020012103468022CDE9001044A1AFF28B
:100CF000071001F052FB0020012103468022CDE9BC
:100D0000001042A1AFF2F12001F047FB00200121C9
:100D100003468022CDE9001040A1AFF2876001F0C8
:100D20003CFB03220021012000F048FB2B49086016
:100D30007CBD002280F84020002107E01FEDE00A82
:100D400000EB810282ED000A4A1CD1B20829F5DBD2
:100D50009FED350A80ED080A9FED340A80ED090AFF
:100D60009FED330A80ED0A0A9FED320A80ED0B0AEF
:100D70009FED300A80ED0C0A9FED2D0A80ED0D0AE3
:100D80009FED2A0A80ED0E0A9FED270A80ED0F0ADB
:100D9000704710B5FFF756FBFFF7EEFBFFF70CFCB3
:100DA000FFF726FC00220421084600F007FB224939
:100DB00008604FF4407003F0C7FB0121042004F0E9
:100DC00083F900F047F81D48FFF7B3FFFFF765FF11
:100DD00002F01AF8002010BD1001002000010020D0
:100DE00034000020000C0240F80000200C0100201C
:100DF000A4000020F50000200401002000000240B3
:100E0000627574746F6E207461736B0064656164E5
:100E10006C696E6520616C6572740000736F756E2D
:100E200064207461736B00000AD7233CCDCC4C3D29
:100E30008FC2F53D0AD7A33E140100209C0100207B
:100E4000704700BFFEE700BFFEE700BFFEE700BF40
:100E5000FEE770471CB5684603F0B4FC1020009014
:100E600001208DF8040002208DF8070000208DF885
:100E7000060002208DF8050001210B2004F024F962
:100E80006946ED4803F056FC02208DF8040001206D
:100E90008DF806004FF41070009002208DF80700C6
:100EA0008DF805006946E54803F044FC042206215C
:100EB000E24803F0CAFC04220921E04803F0C5FC23
:100EC000002004F0C2F801214FF4021004F045F9AB
:100ED000012003F0CAFF00208DF806004FF4A45053
:100EE00000906946D64803F025FC10200090694622
:100EF000D44803F01FFC06220421D24803F0A5FCCD
:100F000006220721CE4803F0A0FC06220A21CC4885
:100F100003F09BFC06220C21C94803F096FC10212B
:100F2000C54803F085FCC84804F00EFA4BF6803043
:100F3000C64988604FF40070C880002088804FF454
:100F400000700880002048808881BF4804F066FA5D
:100F50000121BD4804F033FBBD4803F0AFFCBD48A0
:100F6000BD49086000208880332008814FF48060EC
:100F70004881000188814BF6FF70C8800121B44888
:100F800003F041FDB449B24803F0C1FC1CBD70B58B
:100F900005460E46002400BF4FF40031AC4803F074
:100FA0006FFE0028F8D10121A94803F04FFD00BFD2
:100FB000AA49A74803F064FE0028F9D00022942132
:100FC000A34803F05BFD00BFA549A14803F036FE2E
:100FD0000028F9D00DE0295D9D4803F0D3FD601C89
:100FE000C4B200BF9E49891E994803F027FE00281D
:100FF000F8D0B442EFDB00BF9849C91C944803F015
:101000003FFE0028F8D00121914803F02BFD70BD70
:1010100070B50446002500BF4FF400318C4803F042
:101020002FFE0028F8D10121894803F00FFD00BFF1
:101030008A49874803F024FE0028F9D00022942131
:10104000834803F01BFD00BF8549814803F0F6FD8E
:101050000028F9D021467E4803F094FD00BF804966
:10106000891E7B4803F0EAFD0028F8D0012178486A
:1010700003F0F8FC00BF4FF40031754803F000FEA8
:101080000028F8D10021724803F000FD01217048CA
:1010900003F0DCFC00BF71496D4803F0F1FD00284E
:1010A000F9D0012294216A4803F0E8FC00BF6D49A1
:1010B000674803F0C3FD0028F9D000BF69493E31FD
:1010C000634803F0BBFD0028F8D0614803F05CFDE5
:1010D000054601215E4803F0C5FC284670BD7CB57D
:1010E000FF241021544803F0A1FB5F4D00E06D1E6A
:1010F000002DFCD10D208DF8000001208DF801009D
:1011000002216846FFF743FF00208DF80000992078
:101110008DF8010002216846FFF739FF47208DF85E
:10112000000080208DF8010002216846FFF72FFFA4
:101130003220FFF76DFF044632208DF8000044F0A6
:1011400080008DF8010002216846FFF720FF322061
:10115000FFF75EFF044632208DF8000024F0800087
:101160008DF8010002216846FFF711FF00208DF87D
:1011700000008DF8010002216846FFF708FF0420F7
:101180008DF80000AF208DF8010002216846FFF7BE
:10119000FEFE0D208DF8000070208DF80100022168
:1011A0006846FFF7F4FE05208DF8000081208DF8D9
:1011B000010002216846FFF7EAFE06208DF80000D4
:1011C00007208DF8010002216846FFF7E0FE0A20A3
:1011D0008DF8000000208DF8010002216846FFF71D
:1011E000D6FE27208DF8000000208DF80100022196
:1011F0006846FFF7CCFE9A208DF800000A208DF893
:1012000001008DF8020003216846FFF7C0FE1F2091
:101210008DF800000F208DF8010002216846FFF7CD
:10122000B6FE02208DF800009E208DF801000221FC
:101230006846FFF7ACFE7CBD000C02400004024093
:101240000008024000000240003C0040E001002095
:1012500000540040A0860100F001002001000010B1
:10126000820007000200030040420F0000F1080165
:1012700041604FF0FF31816000F10801C160016100
:1012800000210160704700210161704742684A6097
:1012900093688B60936859609160086103685B1C78
:1012A0000360704710B502460B685C1C0CB91069EE
:1012B00007E002F1080000E04068446824689C42AE
:1012C000FAD944684C604C68A160886041600A614A
:1012D0001468641C146010BD01460A69D1E901302C
:1012E0009860D1E9010358605068884201D188684C
:1012F0005060002008611068401E10601068704740
:1013000070B505460E462C4654B900BF502080F3F8
:101310001188BFF34F8FBFF36F8F00BF00BFFEE791
:1013200002F0DCFFD4E90F12206801FB02006060CC
:101330000020A0632068A060E06B401E226C216842
:1013400000FB0210E060FF2084F8440084F84500B0
:101350009EB9206908B9012000E00020A8B904F175
:10136000100001F01AFF80B14FF08050F84908607A
:10137000BFF34F8FBFF36F8F07E004F11000FFF74B
:1013800075FF04F12400FFF771FF02F0CEFF01208A
:1013900070BD2DE9F04106460D4617469846069C5D
:1013A0000DB9246000E02760E66325640121204632
:1013B000FFF7A6FF84F84C80BDE8F0812DE9F843E3
:1013C00005460E4690460DB1012000E0002050B9C0
:1013D00000BF502080F31188BFF34F8FBFF36F8F92
:1013E00000BF00BFFEE70EB9002701E005FB06F7CE
:1013F00007F1500003F029F8044644B104F1500904
:1014000043464A46314628460094FFF7C2FF20462D
:10141000BDE8F88370B5044602F060FF94F94550CA
:1014200010E0606A08B9012000E0002038B904F13A
:10143000240001F0B2FE18B101F0B2FF00E003E0B9
:10144000681E45B2002DECDC00BFFF2084F845008B
:1014500002F06BFF02F042FF94F9445010E0206963
:1014600008B9012000E0002048B904F1100001F0A3
:1014700094FE08B101F094FF681E45B200E001E05F
:10148000002DECDC00BFFF2084F8440002F04DFF8B
:1014900070BD70B5054602F021FFA86BE96B88426C
:1014A00001D1012400E0002402F03FFF204670BD7E
:1014B0002DE9F04104460F4615464FF00008A66B93
:1014C000206C40B9206860BB606801F0E4FF804692
:1014D0000020606025E07DB93946226CA06804F0E8
:1014E0005AF9216CA0680844A060D4E90110884230
:1014F00017D32068A06014E03946226CE06804F03D
:101500004AF9216CE068401AE0602168E06888428E
:1015100003D2216C6068401AE060022D01D106B14F
:10152000761E701CA0634046BDE8F0812DE9FF43A4
:1015300083B0064688461D464FF00009344654B92C
:1015400000BF502080F31188BFF34F8FBFF36F8F20
:1015500000BF00BFFEE7B8F1000F01D1206C08B951
:10156000012000E0002050B900BF502080F3118816
:10157000BFF34F8FBFF36F8F00BF00BFFEE7022D99
:1015800002D1E06B012801D1012000E0002050B918
:1015900000BF502080F31188BFF34F8FBFF36F8FD0
:1015A00000BF00BFFEE701F00DFF08B9059808B9BC
:1015B000012000E0002050B900BF502080F31188C6
:1015C000BFF34F8FBFF36F8F00BF00BFFEE700BFB9
:1015D00002F084FEA06BE16B884201D3022D28D17A
:1015E0002A4641462046FFF763FF0746606A08B96E
:1015F000012000E0002068B904F1240001F0CDFDD5
:1016000088B14FF0805052490860BFF34F8FBFF34D
:101610006F8F08E03FB14FF080504D490860BFF335
:101620004F8FBFF36F8F02F080FE012007B0BDE83F
:10163000F083059818B902F078FE0020F6E7B9F1BA
:10164000000F04D101A801F062FE4FF0010902F081
:101650006CFE01F0B6F802F041FE94F94400401C23
:1016600010B9002084F8440094F94500401C10B9DA
:10167000002084F8450002F058FE05A901A801F0F9
:101680004DFEF0B92046FFF704FFA0B104F11000B1
:10169000059901F018FD2046FFF7BCFE00F0E3FFBE
:1016A000002895D14FF0805029490860BFF34F8F33
:1016B000BFF36F8F8CE72046FFF7ACFE00F0D3FF3F
:1016C00086E72046FFF7A6FE00F0CDFF0020ADE73D
:1016D00010B504464CB1002060602060E06000233B
:1016E0001A4619462046FFF721FF10BD2DE9F041AB
:1016F000044601260027224600210120FFF75EFE56
:1017000005462846FFF7E4FF2846BDE8F08170B59E
:1017100005462C4654B900BF502080F31188BFF312
:101720004F8FBFF36F8F00BF00BFFEE701F047FE92
:10173000616888420ED1E068401EE060E06828B928
:1017400000231A4619462046FFF7F0FE012602E064
:1017500004ED00E00026304670BD01464A6A22B121
:101760000A6B1268C2F1050000E00020704770B5F6
:10177000054602F0B3FDA86B08B9012400E000247F
:1017800002F0D3FD204670BD2DE9F34182B005463D
:101790004FF000082C46002654B900BF502080F3BB
:1017A0001188BFF34F8FBFF36F8F00BF00BFFEE7FD
:1017B000206C08B9012000E0002050B900BF502083
:1017C00080F31188BFF34F8FBFF36F8F00BF00BF4F
:1017D000FEE701F0F7FD08B9039808B9012000E021
:1017E000002050B900BF502080F31188BFF34F8F05
:1017F000BFF36F8F00BF00BFFEE700BF02F06EFDBA
:10180000A76BFFB1781EA063206810B901F020FF1C
:101810006060206908B9012000E0002060B904F18F
:10182000100001F0BAFC38B14FF08050F849086060
:10183000BFF34F8FBFF36F8F02F077FD012004B02D
:10184000BDE8F081039898B90EB9012000E00020AE
:1018500050B900BF502080F31188BFF34F8FBFF302
:101860006F8F00BF00BFFEE702F05FFD0020E6E7DC
:10187000B8F1000F04D1684601F049FD4FF00108AE
:1018800002F053FD00F09DFF02F028FD94F94400A2
:10189000401C10B9002084F8440094F94500401C15
:1018A00010B9002084F8450002F03FFD03A9684606
:1018B00001F034FD40BB2046FFF759FFF0B120682E
:1018C00038B902F00BFD606801F088FD064602F0B1
:1018D0002CFD04F12400039901F0F5FB2046FFF7ED
:1018E00099FD00F0C0FE002888D14FF08050C84913
:1018F0000860BFF34F8FBFF36F8F7FE72046FFF77E
:1019000089FD00F0B0FE79E72046FFF783FD00F087
:10191000AAFE2046FFF72BFF0028EED05EB102F0B2
:10192000DDFC2046FFF719FF07463946606801F0E5
:1019300010FE02F0FAFC002081E72DE9F041064696
:101940000F46344654B900BF502080F31188BFF3CE
:101950004F8FBFF36F8F00BF00BFFEE701F02FFD79
:101960006168884204D1E068401CE060012508E01D
:1019700039462046FFF708FF054615B1E068401CD0
:10198000E0602846BDE8F08170B505460E460DB111
:10199000012000E0002050B900BF502080F31188E2
:1019A000BFF34F8FBFF36F8F00BF00BFFEE7AE42A4
:1019B00001D8012000E0002050B900BF502080F382
:1019C0001188BFF34F8FBFF36F8F00BF00BFFEE7DB
:1019D000022200212846FFF7F1FC044604B1A66369
:1019E000204670BD2DE9F05F07468A4690461E46A8
:1019F0003C4654B900BF502080F31188BFF34F8F8D
:101A0000BFF36F8F00BF00BFFEE7BAF1000F01D137
:101A1000206C08B9012000E0002050B900BF502020
:101A200080F31188BFF34F8FBFF36F8F00BF00BFEC
:101A3000FEE7022E02D1E06B012801D1012000E077
:101A4000002050B900BF502080F31188BFF34F8FA2
:101A5000BFF36F8F00BF00BFFEE702F09AFC00BF2C
:101A60005021EFF3118081F31188BFF34F8FBFF343
:101A70006F8F00BF0546A06BE16B884201D3022E39
:101A800023D194F945B0324651462046FFF710FD68
:101A90000BF1010088B9606A08B9012000E000205C
:101AA00080B904F1240001F078FB58B1B8F1000FBF
:101AB00008D00120C8F8000004E00BF1010040B29A
:101AC00084F845004FF0010901E04FF0000900BF24
:101AD00085F3118800BF4846BDE8F09F2DE9F04727
:101AE00006460F46344654B900BF502080F3118893
:101AF000BFF34F8FBFF36F8F00BF00BFFEE7206CB7
:101B000008B9012000E0002050B900BF502080F348
:101B10001188BFF34F8FBFF36F8F00BF00BFFEE789
:101B2000206808B9606808B9012000E0002050B9B9
:101B300000BF502080F31188BFF34F8FBFF36F8F2A
:101B400000BF00BFFEE702F024FC00BF5021EFF30E
:101B5000118081F31188BFF34F8FBFF36F8F00BFE8
:101B60000546D4F83890E06B48451ED994F945A055
:101B700009F10100A0630AF1010070B9606A08B9B7
:101B8000012000E0002068B904F1240001F005FB09
:101B900040B13FB10120386004E00AF1010040B2D9
:101BA00084F845004FF0010801E04FF0000800BF45
:101BB00085F3118800BF4046BDE8F08770B5044644
:101BC0000D46206C70B1216CE0680844E0606168EB
:101BD000E068884201D32068E0602846226CE16812
:101BE00003F0D9FD70BD2DE9F74183B005460E46DF
:101BF0004FF000082C466CB900BF502080F31188CC
:101C0000BFF34F8FBFF36F8F00BF00BFFEE7000031
:101C100004ED00E00EB9206C08B9012000E00020BE
:101C200050B900BF502080F31188BFF34F8FBFF32E
:101C30006F8F00BF00BFFEE701F0C4FB08B9059835
:101C400008B9012000E0002050B900BF502080F307
:101C50001188BFF34F8FBFF36F8F00BF00BFFEE748
:101C600000BF02F03BFBA76BF7B131462046FFF700
:101C7000A5FF781EA063206908B9012000E00020BC
:101C800060B904F1100001F088FA38B14FF08050CB
:101C9000FA490860BFF34F8FBFF36F8F02F045FB27
:101CA000012006B0BDE8F081059818B902F03DFBAF
:101CB0000020F6E7B8F1000F04D101A801F027FBDE
:101CC0004FF0010802F031FB00F07BFD02F006FB53
:101CD00094F94400401C10B9002084F8440094F9A1
:101CE0004500401C10B9002084F8450002F01DFB9F
:101CF00005A901A801F012FBF0B92046FFF737FD56
:101D0000A0B104F12400059901F0DDF92046FFF7A8
:101D100081FB00F0A8FC0028A3D14FF08050D749E8
:101D20000860BFF34F8FBFF36F8F9AE72046FFF72E
:101D300071FB00F098FC94E72046FFF76BFB00F086
:101D400092FC2046FFF713FD00288AD00020A8E768
:101D50002DE9F74382B005460E464FF000082C46A9
:101D600054B900BF502080F31188BFF34F8FBFF3E9
:101D70006F8F00BF00BFFEE70EB9206C08B90120CD
:101D800000E0002050B900BF502080F31188BFF35D
:101D90004F8FBFF36F8F00BF00BFFEE701F012FB54
:101DA00008B9049808B9012000E0002050B900BF2C
:101DB000502080F31188BFF34F8FBFF36F8F00BFA8
:101DC00000BFFEE700BF02F089FAD4F83890B9F1FD
:101DD000000F1ED0E76831462046FFF7EFFEE760B0
:101DE000606A08B9012000E0002060B904F1240015
:101DF00001F0D3F938B14FF08050A0490860BFF32B
:101E00004F8FBFF36F8F02F090FA012005B0BDE84D
:101E1000F083049818B902F088FA0020F6E7B8F1C8
:101E2000000F04D1684601F072FA4FF0010802F089
:101E30007CFA00F0C6FC02F051FA94F94400401C10
:101E400010B9002084F8440094F94500401C10B9F2
:101E5000002084F8450002F068FA04A9684601F001
:101E60005DFAF0B92046FFF782FCA0B104F124002E
:101E7000049901F028F92046FFF7CCFA00F0F3FBB3
:101E80000028A0D14FF080507C490860BFF34F8FED
:101E9000BFF36F8F97E72046FFF7BCFA00F0E3FB34
:101EA00091E72046FFF7B6FA00F0DDFB2046FFF78A
:101EB0005EFC002887D00020A8E72DE9F05F0646E9
:101EC00089461746344654B900BF502080F3118824
:101ED000BFF34F8FBFF36F8F00BF00BFFEE7B9F1B5
:101EE000000F01D1206C08B9012000E0002050B99A
:101EF00000BF502080F31188BFF34F8FBFF36F8F67
:101F000000BF00BFFEE702F044FA00BF5021EFF32C
:101F1000118081F31188BFF34F8FBFF36F8F00BF24
:101F20000546D4F838A0BAF1000F22D094F944B095
:101F300049462046FFF742FEAAF10100A0630BF1DB
:101F4000010070B9206908B9012000E0002068B9DB
:101F500004F1100001F021F940B13FB101203860D7
:101F600004E00BF1010040B284F844004FF0010896
:101F700001E04FF0000800BF85F3118800BF404624
:101F8000BDE8F09F2DE9F04706468846344654B92F
:101F900000BF502080F31188BFF34F8FBFF36F8FC6
:101FA00000BF00BFFEE7B8F1000F01D1206C08B9F7
:101FB000012000E0002050B900BF502080F31188BC
:101FC000BFF34F8FBFF36F8F00BF00BFFEE7206CE2
:101FD00008B1012000E0002050B900BF502080F37C
:101FE0001188BFF34F8FBFF36F8F00BF00BFFEE7B5
:101FF00002F0CFF900BF5021EFF3118081F3118877
:10200000BFF34F8FBFF36F8F00BF0546A06B48B182
:10201000D4F80C9041462046FFF7D0FDC4F80C9050
:10202000012700E0002700BF85F3118800BF384674
:10203000BDE8F08770B5044654B900BF502080F366
:102040001188BFF34F8FBFF36F8F00BF00BFFEE754
:1020500002F044F9A56B02F068F9284670BD70B52E
:102060000446254665B900BF502080F31188BFF3B0
:102070004F8FBFF36F8F00BF00BFFEE704ED00E09E
:1020800002F02CF9D5E90E10461A02F04EF930464E
:1020900070BD014651B900BF502282F31188BFF3D1
:1020A0004F8FBFF36F8F00BF00BFFEE7886B704795
:1020B000014600200EE0524A02EBC00252688A42FA
:1020C00007D100224E4B43F8302003EBC0035A6087
:1020D00002E0401C0828EED300BF704770B50446EC
:1020E000254655B900BF502080F31188BFF34F8FAC
:1020F000BFF36F8F00BF00BFFEE72846FFF7D8FF92
:10210000284602F0F4F970BD0146886C704781647E
:102110007047014691F84C007047014651B900BF25
:10212000502282F31188BFF34F8FBFF36F8F00BF30
:1021300000BFFEE78A6B0AB9012000E0002070476B
:10214000014651B900BF502282F31188BFF34F8F6F
:10215000BFF36F8F00BF00BFFEE78A6BCB6B9A4265
:1021600001D1012000E000207047024600200BE072
:10217000234B53F8303033B9214B43F8301003EB85
:10218000C0035A6002E0401C0828F1D300BF70472A
:102190000246002000210AE0194B03EBC1035B68F3
:1021A000934203D1164B53F8310002E0491C082931
:1021B000F2D300BF70472DE9F04105460E461746A1
:1021C0002C4602F08BF894F94400401C10B9002012
:1021D00084F8440094F94500401C10B9002084F8AC
:1021E000450002F0A2F8A06B28B93A46314604F146
:1021F000240000F0B4FF2046FFF70CF9BDE8F081A1
:102200000002002010B5002407E004EB8401FC4A22
:1022100002EB8100FFF72AF8641C052CF5D3F9487E
:10222000FFF724F8F848FFF721F8F848FFF71EF801
:10223000F748FFF71BF8F748FFF718F8F148F64999
:102240000860F148F549086010BD10B5044602F079
:1022500045F8F3480068401CF1490860F1480068FF
:1022600040B9F04804600846006801280DD1FFF726
:10227000C9FF0AE0EC48006838B9EA480068C06A5B
:10228000E16A884201D8E7480460E8480068401CD9
:10229000E649086008460068206494F82C10012084
:1022A0008840E34909680843E1490860E16A01EBB5
:1022B0008101D34A02EB8100211DFEF7E7FF02F006
:1022C00034F8D948006868B1D6480068C06AE16A45
:1022D000884207D24FF08050D6490860BFF34F8F35
:1022E000BFF36F8F10BD2DE9F05F82460F46904619
:1022F0009B460A9E0C9C4FEA8801A522206B03F0A6
:102300008FFAA8F10100216B01EB800929F0070980
:1023100009F0070008B9012000E0002050B900BF13
:10232000502080F31188BFF34F8FBFF36F8F00BF32
:1023300000BFFEE7002507E0795D04F13400415558
:10234000785D00B902E06D1C0A2DF5D300BF0021B5
:102350003D200155052E00D30426E662A664002028
:10236000E064201DFEF78FFF04F11800FEF78BFFDD
:102370002461C6F10500A06164620020206584F834
:1023800054005A465146484601F0B4FE20600B986E
:1023900008B10B980460BDE8F09F2DE9FF4F85B0B0
:1023A000804689461746DDE912ABB80002F04DF8C9
:1023B000064656B1582002F048F804460CB1266390
:1023C00004E0304602F093F800E000247CB10020E5
:1023D000CDE900ABCDE902403A4649464046089B6C
:1023E000FFF781FF2046FFF730FF012501E04FF0A6
:1023F000FF35284609B0BDE8F08F874909680968AC
:1024000009B9012100E0002121B14FF0FF318A4AD2
:10241000116006E080490968C968C868864A416851
:102420001160704710B50446206B02F060F820463A
:1024300002F05DF810BD70B5054601F04FFF15B90B
:102440007848006800E028460446201DFEF744FF57
:1024500078B9E06A00EB8000694951F8200040B982
:1024600094F82C1001208840714909688143704814
:102470000160A06A18B104F11800FEF72DFF6B4847
:102480000068401C6949086066480068844209D1B8
:10249000211D5F48FEF7FAFE68480068401C674946
:1024A000086009E05E480068401E5D4908602046FB
:1024B000FFF7B8FFFFF7A1FF01F037FF5A480068A8
:1024C000E8B158480068844219D15D48006808B9ED
:1024D000012000E0002050B900BF502080F3118897
:1024E000BFF34F8FBFF36F8F00BF00BFFEE74FF00A
:1024F000805050490860BFF34F8FBFF36F8F70BD9E
:102500002DE9F0414FF000084D480068002876D1D1
:102510004C480068451C4B48056015BB3E480068A8
:10252000006808B9012000E0002050B900BF502029
:1025300080F31188BFF34F8FBFF36F8F00BF00BFD1
:10254000FEE7354807683548006833490860334876
:1025500007603D480068401C3B490860FFF74DFF9D
:1025600000BF3548006885423CD300BF2A48006858
:10257000006808B9012000E0002020B14FF0FF30D2
:102580002D4908602DE024480068C068C46866686A
:10259000B54202D22848066023E0201DFEF79CFECB
:1025A000A06A18B104F11800FEF796FE94F82C10FA
:1025B000012088401E49096808431D490860E16AF6
:1025C00001EB81010E4A02EB8100211DFEF75EFE48
:1025D0001449E06A0968C96A8842C7D34FF0010804
:1025E000C4E700BF0F480068C06A00EB80000449E0
:1025F00051F82000012801D94FF001082BE025E017
:1026000040020020A4020020B8020020CC020020DA
:10261000E0020020F40200201C0100202001002024
:10262000280100201801002034010020440100206E
:102630003001002004ED00E04801002024010020CA
:10264000500100202C01002040010020FE480068BD
:10265000401CFD490860FD48006808B14FF00108C2
:102660004046BDE8F08170B500240026F8480068B7
:1026700050B900BF502080F31188BFF34F8FBFF3D4
:102680006F8F00BF00BFFEE701F028FEF048006832
:10269000401EEF4908600846006800284FD1ED4809
:1026A000006800284BD024E0EB48C068C46804F1FF
:1026B0001800FEF711FE201DFEF70EFE94F82C10F8
:1026C00001208840E54909680843E4490860E16A57
:1026D00001EB8101E24A02EB8100211DFEF7D6FDEC
:1026E000E049E06A0968C96A884202D30120D749F3
:1026F0000860D948006808B9012000E000200028DF
:10270000D2D00CB1FFF779FECF48056865B100BFA4
:10271000FFF7F6FE10B10120CC4908606D1E002DB8
:10272000F6D10020C8490860C848006838B10126C1
:102730003007CD490860BFF34F8FBFF36F8F01F0B3
:10274000F4FD304670BD2DE9F04105460E46C74800
:102750000768C4480068001DFEF7BEFD50B9C148B7
:10276000006890F82C1001208840BC49096881431A
:10277000BA480160681C38B936B1BA480168091D09
:10278000BB48FEF783FD1AE07C19B6480068446038
:10279000BC4207D2B3480168091DB6480068FEF77D
:1027A00081FD0CE0AF480168091DB3480068FEF7E1
:1027B00079FDB2480068844201D2B0480460BDE8A7
:1027C000F081A3480068401CA149086070472DE9CA
:1027D000F04704460F464FF0000954B900BF50209F
:1027E00080F31188BFF34F8FBFF36F8F00BF00BF1F
:1027F000FEE70FB1012000E0002050B900BF5020DB
:1028000080F31188BFF34F8FBFF36F8F00BF00BFFE
:10281000FEE78F48006808B9012000E0002050B9A9
:1028200000BF502080F31188BFF34F8FBFF36F8F2D
:1028300000BF00BFFEE7FFF7C4FF8C4806682068B2
:10284000C5192068B04207D92068A8420BD9B54203
:1028500009D94FF0010906E02068A84201D8B54225
:1028600001D94FF001092560B9F1000F03D0A81B71
:102870000021FFF768FFFFF7F6FE8046B8F1000F72
:1028800007D14FF0805078490860BFF34F8FBFF3F6
:102890006F8FBDE8F08770B504460025D4B16C4851
:1028A000006808B9012000E0002050B900BF5020A6
:1028B00080F31188BFF34F8FBFF36F8F00BF00BF4E
:1028C000FEE7FFF77EFF00212046FFF73CFFFFF702
:1028D000CAFE05463DB94FF0805063490860BFF31A
:1028E0004F8FBFF36F8F70BD2DE9F04107463E4615
:1028F00056B900BF502080F31188BFF34F8FBFF34C
:102900006F8F00BF00BFFEE756480068864201D1C6
:1029100000241EE001F0E2FC756901F006FD564856
:102920000068854203D053480068854201D10224E3
:102930000FE04F48854205D1B06A08B9032408E08A
:10294000022406E04E48854200D00DB9042400E080
:1029500001242046BDE8F08170B5044601F0BEFCBC
:1029600014B94048006800E020460646F56A01F0C8
:10297000DCFC284670BD2DE9F041054601F009FD5B
:1029800000BF5021EFF3118081F31188BFF34F8F07
:10299000BFF36F8F00BF044615B93248006800E0EE
:1029A00028460746FE6A00BF84F3118800BF304600
:1029B000BDE8F0812DE9F04780460D464FF0000953
:1029C000052D01D2012000E0002050B900BF5020A9
:1029D00080F31188BFF34F8FBFF36F8F00BF00BF2D
:1029E000FEE7052D00D3042501F078FCB8F1000FB7
:1029F00002D11C48006800E040460446A66CAE4286
:102A000075D0B5420BD91748006884420DD01548DF
:102A10000068C06AA84208D84FF0010905E01148D3
:102A20000068844201D14FF00109E76AE16AA06CB5
:102A3000884200D1E562A564A06900F0004010B9A9
:102A4000C5F10500A0611DE0380100203C01002017
:102A50005001002028010020CC020020300100207D
:102A6000400200201801002004ED00E02C010020AD
:102A7000F4020020200100201C0100204801002059
:102A8000E002002007EB8701FC4A02EB810160694C
:102A9000884201D1012000E00020E0B1201DFEF7B6
:102AA0001BFC30B90120B840F54909688143F4485E
:102AB000016094F82C1001208840F149096808430E
:102AC000EF490860E16A01EB8101EC4A02EB810009
:102AD000211DFEF7DBFBB9F1000F07D04FF080504E
:102AE000E8490860BFF34F8FBFF36F8F00BF01F05D
:102AF0001CFCBDE8F087E448006818B10120E349F8
:102B0000086032E00020E1490860DD480068B0FA62
:102B100080F0C0F11F0101EB8100D84A52F820007B
:102B200008B1012000E0002050B900BF502080F320
:102B30001188BFF34F8FBFF36F8F00BF00BFFEE759
:102B400001EB8102CD4B03EB820042685268426088
:102B500000F108024368934202D142685268426021
:102B60004268D268CA4B1A6000BF704770B505460C
:102B700001F0B4FB15B9C648006800E028460446D9
:102B8000201DFEF7A9FB78B9E06A00EB8000BB4985
:102B900051F8200040B994F82C1001208840B84921
:102BA00009688143B6480160A06A18B104F11800B1
:102BB000FEF792FB211DB748FEF768FB94F854001E
:102BC000012802D1002084F8540001F0AEFBB24885
:102BD000006828B101F082FBFFF70FFC01F0A5FBB4
:102BE000AB480068844229D1AB480068D0B1A64800
:102BF000006808B9012000E0002050B900BF502053
:102C000080F31188BFF34F8FBFF36F8F00BF00BFFA
:102C1000FEE74FF080509B490860BFF34F8FBFF332
:102C20006F8F0BE09B4800689C490968884203D17C
:102C300000209749086001E0FFF75DFF70BD10B507
:102C400002460020114652B900BF502383F3118879
:102C5000BFF34F8FBFF36F8F00BF00BFFEE78D4CF8
:102C60004B69A34201D1012300E0002373B18C4CD6
:102C70008B6AA34201D1012300E0002333B98B6AA0
:102C80000BB9012300E0002303B1012010BD70B592
:102C900005462C4655B900BF502080F31188BFF37C
:102CA0004F8FBFF36F8F00BF00BFFEE774B378484C
:102CB000006884422AD001F011FB2046FFF7BFFFD5
:102CC00010B3201DFEF708FB94F82C10012088405B
:102CD0006B49096808436A490860E16A01EB8101B0
:102CE000664A02EB8100211DFEF7D0FA6849E06ACE
:102CF0000968C96A884207D34FF08050614908606B
:102D0000BFF34F8FBFF36F8F01F00FFB70BD2DE945
:102D1000F04106460027344656B900BF502080F3E4
:102D20001188BFF34F8FBFF36F8F00BF00BFFEE767
:102D300001F02FFB00BF5021EFF3118081F31188C8
:102D4000BFF34F8FBFF36F8F00BF05462046FFF7DD
:102D500076FF20B34C480068E0B94D49E06A096845
:102D6000C96A884200D30127201DFEF7B5FA94F8FE
:102D70002C100120884042490968084340490860F6
:102D8000E16A01EB81013D4A02EB8100211DFEF762
:102D90007DFA04E004F118014148FEF777FA00BF1C
:102DA00085F3118800BF3846BDE8F08110B516E004
:102DB00001F094FA3B48C068C468201DFEF78CFA05
:102DC00036480068401E3549086037480068401E94
:102DD0003549086001F0A9FA2046FFF723FB324885
:102DE00000680028E4D110BD00BFFFF7DFFF2348D3
:102DF00000680128F9D94FF0805022490860BFF3DC
:102E00004F8FBFF36F8FF0E71CB5284800210B46AA
:102E10008222CDE9001026A12748FFF7BEFA04461A
:102E2000012C02D101F039F80446012C15D100BF64
:102E3000502080F31188BFF34F8FBFF36F8F00BF17
:102E40004FF0FF301D490860012013490860002041
:102E50001B49086001F073F935E0601C08B10120DE
:102E600000E0002070BB00BF502080F31188BFF34A
:102E70004F8FBFF36F8F00BF00BFFEE740020020FF
:102E80003001002004ED00E0500100203C01002052
:102E900018010020F4020020340100202801002045
:102EA000CC020020E0020020240100204C01002080
:102EB00049444C4500000000E92D0008480100206D
:102EC0002C010020FFE71CBD10B500BF502080F38F
:102ED0001188BFF34F8FBFF36F8F00BF0020F949F8
:102EE000086001F0E6F910BDF7490868704770B551
:102EF00001F04FFA0025F4480468204670BDF348FD
:102F000000687047014611B9F148006800E00846C2
:102F1000024652B900BF502080F31188BFF34F8F93
:102F2000BFF36F8F00BF00BFFEE702F134007047B0
:102F30000246002101E0521C491C1078A528FAD055
:102F4000890888B270472DE9F04107460C46904643
:102F50001E4617B9DE48006800E038460546256081
:102F600005F134006060E86A2061286BE061286C3C
:102F7000A060A86C60610020A061052E12D0D4482A
:102F80000068854202D1002020730FE02673032ED3
:102F90000CD1FFF716FCA86A08B102202073FFF7D6
:102FA00062FB03E02846FFF79FFC2073B8F1000F97
:102FB00004D0286BFFF7BCFF208401E000202084B0
:102FC000BDE8F0812DE9F04707460C469046002603
:102FD000206848B3204641684968416000F1080113
:102FE00042688A4202D14168496841604168D1F82B
:102FF0000C9000BF204641684968416000F108011B
:1030000042688A4202D14168496841604168CD689E
:1030100006EBC60007EB8001434601222846FFF776
:1030200092FF761C4D45E5D13046BDE8F0872DE98D
:10303000F04105468846164600240527FFF7C1FBE8
:10304000A2480068804539D300BF7F1E07EB870286
:10305000A04B03EB820104EBC40205EB82000122CA
:10306000FFF7B0FF0444002FEFD104EBC40105EBE0
:103070008100022298490968FFF7A4FF044404EB89
:10308000C40105EB8100022294490968FFF79AFF09
:10309000044404EBC40105EB810004229049FFF7CE
:1030A00091FF044404EBC40105EB810003228D4928
:1030B000FFF788FF04440EB100203060FFF7D3FA19
:1030C0002046BDE8F08170B504460D4654B900BFF6
:1030D000502080F31188BFF34F8FBFF36F8F00BF75
:1030E00000BFFEE77A48016818312046FEF7DAF89B
:1030F00001212846FFF727FB70BD70B504460D4639
:10310000164654B900BF502080F31188BFF34F8F8B
:10311000BFF36F8F00BF00BFFEE77348006808B1C0
:10312000012000E0002050B900BF502080F311883A
:10313000BFF34F8FBFF36F8F00BF00BFFEE745F0B7
:103140000040634909688861614801681831204678
:10315000FEF79CF801213046FFF7F5FA70BD70B517
:1031600005460E46144655B900BF502080F311881D
:10317000BFF34F8FBFF36F8F00BF00BFFEE7544810
:10318000016818312846FEF781F80CB14FF0FF3680
:1031900021463046FFF7D7FA70BD70B50646F06895
:1031A000C46854B900BF502080F31188BFF34F8F1B
:1031B000BFF36F8F00BF00BFFEE704F11800FEF7FA
:1031C0008BF849480068A8B9201DFEF785F894F8E7
:1031D0002C1001208840454909680843434908608C
:1031E000E16A01EB81013B4A02EB8100211DFEF700
:1031F0004DF804E004F118013D48FEF747F8344962
:10320000E06A0968C96A884204D901250120394960
:10321000086000E00025284670BD70B505460E46E2
:103220003148006808B1012000E0002050B900BF1B
:10323000502080F31188BFF34F8FBFF36F8F00BF13
:1032400000BFFEE746F000402860EC6854B900BFBC
:10325000502080F31188BFF34F8FBFF36F8F00BFF3
:1032600000BFFEE72846FEF737F8201DFEF734F8CA
:1032700094F82C10012088401C49096808431B4918
:103280000860E16A01EB8101124A02EB8100211D15
:10329000FDF7FCFF0E49E06A0968C96A884202D955
:1032A00001201449086070BD10B5044624BB00BF5E
:1032B000502080F31188BFF34F8FBFF36F8F00BF93
:1032C00000BFFEE7340100202C010020280100206F
:1032D00018010020400200201C01002020010020D5
:1032E000E0020020F4020020500100203001002004
:1032F000CC0200203C01002000F0F0FFFE480068F6
:103300002060FE480068606001F00FF810BDFA49C7
:1033100009680160F94909684160704770B5054660
:103320000C4655B900BF502080F31188BFF34F8F72
:10333000BFF36F8F00BF00BFFEE754B900BF50203E
:1033400080F31188BFF34F8FBFF36F8F00BF00BFB3
:10335000FEE700F0C3FFE94802686868131A2068B6
:10336000401C08B9002617E0E3492868096888422C
:1033700004D06868904201D801260DE02068984288
:1033800007D92068C01A20602846FFF7C0FF002632
:1033900002E000202060012600F0C7FF304670BD2B
:1033A0000120D74908607047014611B10A46506CA8
:1033B00000E00020704708B1024651647047D149CF
:1033C00008687047D049096809B9012005E0CF496C
:1033D000096809B9022000E00020704770B5054671
:1033E0002C460026002D54D0C649E06A0968C96AF7
:1033F000884247D2A06900F0004028B9C14800685F
:10340000C06AC0F10500A061E16A01EB8101C04A18
:1034100002EB81016069884201D1012000E00020B7
:1034200050B3201DFDF758FF78B9E06A00EB80002B
:10343000B74951F8200040B994F82C100120884079
:10344000B44909688143B3480160AE480068C06A66
:10345000E06294F82C1001208840AE4909680843C6
:10346000AC490860E16A01EB8101A94A02EB8100E5
:10347000211DFDF70BFF03E0A2480068C06AE0626F
:10348000012606E09F49A06C0968C96A884200D2FB
:103490000126304670BD70B505462C460026002D2D
:1034A00055D098480068844201D1012000E00020F6
:1034B00050B900BF502080F31188BFF34F8FBFF386
:1034C0006F8F00BF00BFFEE7E06C50B900BF502017
:1034D00080F31188BFF34F8FBFF36F8F00BF00BF22
:1034E000FEE7E06C401EE064A16CE06A88422ED0EA
:1034F000E06C60BB201DFDF7EFFE78B9E06A00EBE1
:103500008000834951F8200040B994F82C10012024
:1035100088408049096881437E480160A06CE06270
:10352000E06AC0F10500A06194F82C1001208840E9
:1035300078490968084377490860E16A01EB81012D
:10354000734A02EB8100211DFDF7A0FE01263046E3
:1035500070BD2DE9F04706460F4634464FF001098D
:10356000002E67D0E06C50B900BF502080F3118866
:10357000BFF34F8FBFF36F8F00BF00BFFEE7A06C9C
:10358000B84201D23D4600E0A56CE06AA84251D0A5
:10359000E06C01284ED15B480068844201D00120D4
:1035A00000E0002050B900BF502080F31188BFF325
:1035B0004F8FBFF36F8F00BF00BFFEE7D4F82C80A2
:1035C000E562A06900F0004010B9C5F10500A061F6
:1035D00008EB88014E4A02EB81016069884201D103
:1035E000012000E0002028B3201DFDF775FE78B90A
:1035F000E06A00EB8000464951F8200040B994F899
:103600002C100120884043490968814341480160EA
:1036100094F82C10012088403E49096808433D4930
:103620000860E16A01EB8101394A02EB8100211D4A
:10363000FDF72CFEBDE8F0873249096888693149F9
:103640000968C96AC1F105012E4A12689161704783
:103650002C48006830B12B49096801F14C00C96C55
:10366000491C016027480068704770B506460D4642
:1036700000F034FE23480068006D88B9012021491C
:10368000096881F854005DB101212846FFF75BF815
:103690004FF0805020490860BFF34F8FBFF36F8F0A
:1036A00000F043FE00F01AFE16480068046D4CB1AD
:1036B00026B1002013490968086503E0601E11491E
:1036C0000968086500200F49096881F8540000F076
:1036D0002CFE204670BD2DE9F04107468846144671
:1036E0001D4600F0FBFD0748006890F854000228D2
:1036F0002BD00449096811E0400100202C01002072
:103700003C0100201801002034010020500100205D
:10371000400200203001002004ED00E001F15000E3
:10372000096DB94301600120E349096881F854003B
:103730005DB101212846FFF706F84FF08050DF49C0
:103740000860BFF34F8FBFF36F8F00F0EEFD00F006
:10375000C5FD1CB1D8480068006D2060D6480068DF
:1037600090F85400022801D0002608E0D2490968E8
:1037700001F15000096D21EA0801016001260020D5
:10378000CD49096881F8540000F0CFFD3046BDE80E
:10379000F0812DE9F04706460D46174698464FF052
:1037A000010A56B900BF502080F31188BFF34F8F34
:1037B000BFF36F8F00BF00BFFEE7344600F08EFD01
:1037C000B8F1000F02D0206DC8F8000094F85490B2
:1037D000022084F85400052F17D2DFE807F0150304
:1037E000070B0D00206D284320650EE0206D401C66
:1037F00020650AE0256508E0B9F1020F01D02565D2
:1038000001E04FF0000A00E000BF00BFB9F1010F76
:1038100033D1201DFDF760FD94F82C100120884065
:10382000A74909680843A6490860E16A01EB8101DC
:10383000A44A02EB8100211DFDF728FDA06A08B90A
:10384000012000E0002050B900BF502080F3118813
:10385000BFF34F8FBFF36F8F00BF00BFFEE79649E6
:10386000E06A0968C96A884207D94FF080509349D5
:103870000860BFF34F8FBFF36F8F00F056FD5046C7
:10388000BDE8F0872DE9F84F07460E469046994669
:10389000DDF828B00120009057B900BF502080F318
:1038A0001188BFF34F8FBFF36F8F00BF00BFFEE7DC
:1038B00000F06FFD3C4600BF5021EFF3118081F313
:1038C0001188BFF34F8FBFF36F8F00BF0546B9F16B
:1038D000000F02D0206DC9F8000094F854A0022017
:1038E00084F85400B8F1050F17D2DFE808F015038B
:1038F000070B0D00206D304320650EE0206D401C4D
:1039000020650AE0266508E0BAF1020F01D02665BD
:1039100001E00020009000E000BF00BFBAF1010FFD
:103920003ED1A06A08B9012000E0002050B900BFD4
:10393000502080F31188BFF34F8FBFF36F8F00BF0C
:1039400000BFFEE760480068A8B9201DFDF7C4FC71
:1039500094F82C10012088405949096808435849B7
:103960000860E16A01EB8101564A02EB8100211DEA
:10397000FDF78CFC04E004F118015448FDF786FCC7
:103980004D49E06A0968C96A884209D9BBF1000F4C
:1039900003D00120CBF8000002E001204C49086070
:1039A00000BF85F3118800BF0098BDE8F88F2DE9AE
:1039B000F04105460F4655B900BF502080F31188ED
:1039C000BFF34F8FBFF36F8F00BF00BFFEE700F064
:1039D000E0FC2C4600BF5021EFF3118081F31188E9
:1039E000BFF34F8FBFF36F8F00BF064694F854802C
:1039F000022084F85400206D401C2065B8F1010FAE
:103A00003BD1A06A08B9012000E0002050B900BFF6
:103A1000502080F31188BFF34F8FBFF36F8F00BF2B
:103A200000BFFEE728480068A8B9201DFDF754FC38
:103A300094F82C1001208840214909680843204946
:103A40000860E16A01EB81011E4A02EB8100211D41
:103A5000FDF71CFC04E004F118011C48FDF716FCFE
:103A60001549E06A0968C96A884206D917B1012078
:103A7000386002E001201649086000BF86F3118813
:103A800000BFBDE8F08170B5054615B90A48006869
:103A900000E02846064600F021FC96F85400022873
:103AA00004D1002086F85400012400E0002400F036
:103AB0003CFC204670BD00001801002004ED00E031
:103AC000300100204002002050010020CC020020E4
:103AD0003C0100202DE9F04104460D4616461F46E4
:103AE0004FF0000865602461B5420CD8F01BA16955
:103AF000884202D34FF0010811E0211DF748006809
:103B0000FDF7D0FB0BE0BE4204D2BD4202D34FF022
:103B1000010804E0211DF2480068FDF7C3FB4046A0
:103B2000BDE8F0812DE9FE4304460D4616461F46CA
:103B3000DDF828804FF0000954B900BF502080F311
:103B40001188BFF34F8FBFF36F8F00BF00BFFEE739
:103B5000E448006810B3009501960294062D15DA2A
:103B6000FFF730FC022808D1002342466946DD48B1
:103B70000068FDF7DBFC814610E000231A46694629
:103B8000D8480068FDF7D2FC814607E000233A469A
:103B90006946D4480068FDF725FF81464846BDE8E0
:103BA000FE832DE9F84332E0CD480068C06805681F
:103BB000CB480068C068C468201DFDF78DFB204617
:103BC000616A8847E069012821D1A0694619AE429F
:103BD00007D966602461211DC1480068FDF762FBBA
:103BE00015E0002003462A46014600902046FFF7D4
:103BF00099FF074657B900BF502080F31188BFF3E3
:103C00004F8FBFF36F8F00BF00BFFEE700BFB44808
:103C10000068006808B9012000E000200028C3D037
:103C2000AF48D0F80080AD480068AD490860AB48A7
:103C3000C0F80080BDE8F88370B50446FFF754F97A
:103C40000546A9480068854204D2FFF7AAFF012073
:103C5000206001E000202060A3480560284670BD78
:103C600070B586B06AE00398002867DB059C606940
:103C700008B9012000E0002010B9201DFDF72CFB41
:103C800002A8FFF7D9FF054603980A2854D2DFE8B7
:103C900000F009050731334F0608323400BF00BF7A
:103CA00000BF00BF0498A269811803462A46204637
:103CB000FFF710FFE8B12046616A8847E0690128F4
:103CC00017D1002000900498A169421800231946DA
:103CD0002046FFF727FF064656B900BF502080F365
:103CE0001188BFF34F8FBFF36F8F00BF00BFFEE798
:103CF00000BF22E000BF20E000BF0498A061A069DF
:103D000008B1012000E0002050B900BF502080F32E
:103D10001188BFF34F8FBFF36F8F00BF00BFFEE767
:103D2000A06941192B462A462046FFF7D3FE04E03E
:103D3000204600F0DCFB00E000BF00BF002203A92A
:103D400068480068FDF74FFF00288CD106B070BDB1
:103D5000F8B505460F4662480068C068C468201D73
:103D6000FDF7BAFAE06901281DD1A06941192B4677
:103D70003A462046FFF7AEFEA8B1002003462A4689
:103D8000014600902046FFF7CDFE064656B900BF1B
:103D9000502080F31188BFF34F8FBFF36F8F00BFA8
:103DA00000BFFEE700BF2046616A8847F8BDF8B54E
:103DB00005460C46FEF705FD6846FFF73DFF064643
:103DC000009820BB44B9B54206D8FEF74CFC3146FA
:103DD0002846FFF7BDFF1CE03CB140480068006882
:103DE00008B9012000E000200446A91B22463D48F6
:103DF0000068FEF7E0F9FEF736FC50B94FF080504E
:103E00003A490860BFF34F8FBFF36F8F01E0FEF7B1
:103E10002AFCF8BD0146324A126812680AB901222A
:103E200000E000220A600A6822B92D4A1268D268AE
:103E3000106800E00020704708B500BF6846FFF733
:103E4000E9FF044620460099FFF7B1FFFFF708FF9E
:103E5000F4E710B500F042FA22480068D0B92448CF
:103E6000FDF704FA2348FDF701FA21481C490860D0
:103E700020481A49086000220C210A20FDF79EFA0A
:103E8000184908600846006820B11BA11548006861
:103E9000FEF76BF900F049FA10BD1CB50024FFF7DE
:103EA000D8FF1048006858B11548022100234FF48C
:103EB0008272CDE9001013A11448FEF76EFA044691
:103EC00054B900BF502080F31188BFF34F8FBFF368
:103ED0006F8F00BF00BFFEE720461CBD58010020C9
:103EE000540100205C0100206401002004ED00E08A
:103EF000080300201C030020546D725100000000D4
:103F000060010020546D722053766300393E000832
:103F10002DE9F04706460D4617469846DDE9089418
:103F20000DB1012000E0002050B900BF502080F307
:103F30001188BFF34F8FBFF36F8F00BF00BFFEE745
:103F40005CB1FFF786FF2660A561E761C4F82080B9
:103F5000C4F82490201DFDF796F9BDE8F0872DE9FF
:103F6000FC4705460E4617469846DDF828902C205B
:103F700000F06BFA04463CB143463A4631462846C7
:103F8000CDE90094FFF7C4FF2046BDE8FC8749480F
:103F9000006808B1012000E0002050B900BF5020A7
:103FA00080F31188BFF34F8FBFF36F8F00BF00BF47
:103FB000FEE740480068704701460A4651B900BF15
:103FC000502080F31188BFF34F8FBFF36F8F00BF76
:103FD00000BFFEE79069704710B501460A4651B927
:103FE00000BF502383F31188BFF34F8FBFF36F8F50
:103FF00000BF00BFFEE7506810BD01460A4651B938
:1040000000BF502080F31188BFF34F8FBFF36F8F35
:1040100000BF00BFFEE71068704770B50446264633
:1040200054B900BF502080F31188BFF34F8FBFF306
:104030006F8F00BF00BFFEE700F050F9706908B94C
:10404000012000E0002080F0010500F06EF9284614
:1040500070BD70B50446254654B900BF502080F3AA
:104060001188BFF34F8FBFF36F8F00BF00BFFEE714
:1040700000F034F92E6A00F058F9304670BD70B582
:1040800004460D46264654B900BF502080F31188DF
:10409000BFF34F8FBFF36F8F00BF00BFFEE700F08D
:1040A0001DF9356200F041F970BD0146886A70471C
:1040B0008162704760010020D1480068401C08B947
:1040C000012000E0002050B900BF502080F311888B
:1040D000BFF34F8FBFF36F8F00BF00BFFEE700BF7E
:1040E000502080F31188BFF34F8FBFF36F8F00BF55
:1040F00000BFFEE7001F4FF080730360001F21F038
:1041000001030360001FBF4B036014380260001FEF
:104110006FF0020303602038704700204FF0E02169
:1041200008618861B84800684FF47A71B0FBF1F01B
:10413000401E4FF0E02148610720086170471CB520
:10414000B2480068B249884201D0012000E0002056
:1041500050B900BF502080F31188BFF34F8FBFF3D9
:104160006F8F00BF00BFFEE7A8480068A849491E3E
:10417000884201D0012000E0002050B900BF50204B
:1041800080F31188BFF34F8FBFF36F8F00BF00BF65
:10419000FEE7A049084600780190FF200A4610700B
:1041A0000846007800909DF8000000F0F0009DF8AF
:1041B0000020904201D1012000E0002050B900BF52
:1041C000502080F31188BFF34F8FBFF36F8F00BF74
:1041D00000BFFEE79DF8000000F050008E4A10700E
:1041E00007208E4A106009E08C480068401E8B4A08
:1041F00010609DF800004006000E00909DF8000041
:1042000000F080008028EFD084480068C0F10700EB
:10421000042801D1012000E0002050B900BF502047
:1042200080F31188BFF34F8FBFF36F8F00BF00BFC4
:10423000FEE77A480068C0F10700042801D1012098
:1042400000E0002050B900BF502080F31188BFF378
:104250004F8FBFF36F8F00BF00BFFEE76F4800684E
:1042600000026E4A10601046008800F4E0601060A2
:10427000684A0198107065482030006840F470006A
:104280006249203108600846006840F070400860CC
:10429000FFF743FF00205A490860FCF709F860481F
:1042A000006840F040405E490860FBF7EDFF0020E9
:1042B0001CBD53480068B0F57A7F01D1012000E0B1
:1042C000002050B900BF502080F31188BFF34F8FFA
:1042D000BFF36F8F00BF00BFFEE7704700BF5020E5
:1042E00080F31188BFF34F8FBFF36F8F00BF444837
:1042F0000068401C4249086008460068012813D144
:104300004248001D0068C0B208B9012000E000204A
:1043100050B900BF502080F31188BFF34F8FBFF317
:104320006F8F00BF00BFFEE770473548006850B987
:1043300000BF502080F31188BFF34F8FBFF36F8F02
:1043400000BF00BFFEE72E480068401E2C490860F1
:104350000846006820B9002080F3118800BF00BF24
:10436000704710B500BF502080F31188BFF34F8F06
:10437000BFF36F8F00BFFEF7C3F820B14FF080503E
:104380002249091D086000BF002080F3118800BF8A
:1043900010BD70B5FBF7C4FF0446102C16D304F112
:1043A000E02090F8F0531C480078854201DB0120A2
:1043B00000E0002050B900BF502080F31188BFF307
:1043C0004F8FBFF36F8F00BF00BFFEE70F480C3069
:1043D000006800F4E06011490968884201D80120B2
:1043E00000E0002050B900BF502080F31188BFF3D7
:1043F0004F8FBFF36F8F00BF00BFFEE770BD00009F
:1044000068010020B94000080000002000ED00E035
:1044100071C20F4100E400E06C0100207001002037
:1044200034EF00E0424A22F00700424A10600022C6
:10443000404B5A60404A414B5A6000221A60014684
:104440003D4A4A601A460A6070472DE9F041044629
:104450004FF00008FEF7B5F93948006820B9FFF7BA
:10446000E1FF01203649086044B1083404F0070038
:1044700020B104F00700C0F108000444002C31D042
:104480002D4884422ED22B4F3846056801E02F4636
:104490002D686868A04202D228680028F7D1274812
:1044A00085421FD0386800F10808286838606868BD
:1044B000001B102810D92E196868001B70606C60F2
:1044C00071681C4800E00068026852688A42FAD3AA
:1044D00002683260066000BF1A4968680968081AF5
:1044E00018490860FEF7BFF84046BDE8F08170B596
:1044F00006463546B6B1083D2C46FEF762F96168BE
:104500000C4800E00068026852688A42FAD30268E8
:10451000226004600B496068096808440949086022
:10452000FEF7A1F870BD07480068704770470000AB
:104530003803002074010020F82B01007C010020CA
:10454000880100208401002032490143324A116071
:10455000704770B5002100230F22C4781CB32E4C85
:10456000246804F4E064C4F5E064C4F30721C1F1F5
:104570000404E3B20A4144789C40E1B284781440D8
:1045800021430C07210E254C05786155047804F071
:104590001F050124AC4005786D11AD0005F1E02543
:1045A000C5F8004109E0047804F01F050124AC407F
:1045B0001B4D0678761145F8264070BD194A0A4011
:1045C0000243154B1B1F1A60704739B1124A121D66
:1045D00012680243104B1B1D1A6006E00E4A121DA2
:1045E000126882430C4B1B1D1A607047042808D1C7
:1045F0004FF0E021096941F004014FF0E022116120
:1046000007E04FF0E021096921F004014FF0E022BA
:10461000116170470000FA050CED00E000E400E0D5
:1046200080E100E080FFFF1F10B5044698488442F7
:1046300008D10121084600F0B2FD0021012000F060
:10464000AEFD76E09348844208D10121022000F0BB
:10465000A6FD0021022000F0A2FD6AE08E488442FF
:1046600008D10121042000F09AFD0021042000F06F
:1046700096FD5EE08948844208D10121082000F0BF
:104680008EFD0021082000F08AFD52E0844884421B
:1046900008D10121102000F082FD0021102000F03F
:1046A0007EFD46E07F48844208D10121202000F0B1
:1046B00076FD0021202000F072FD3AE07A48844225
:1046C00008D10121402000F06AFD0021402000F0C7
:1046D00066FD2EE07548844208D10121802000F05B
:1046E0005EFD0021802000F05AFD22E070488442E7
:1046F00008D10121801500F052FD0021A01500F025
:104700004EFD16E06B48844208D10121401500F0AF
:1047100046FD0021601500F042FD0AE06648844233
:1047200007D10121001500F03AFD0021201500F00D
:1047300036FD10BDF0B50A4600210023002400BF5D
:104740003DE0012505FA01F3156805EA03049C42E2
:1047500034D105684F000326BE40B5430560157986
:104760004E00B5400668354305601579012D02D02D
:104770001579022D16D185684F000326BE40B5433A
:10478000856055794E00B54086683543856045683B
:1047900001268E40B5434560456896798E40B6B295
:1047A00035434560C5684F000326BE40B543C5602C
:1047B000D5794E00B540C6683543C560491C1029FF
:1047C000BFD3F0BD4FF6FF7101600021017141714F
:1047D0008171C171704708B54FF480320092009A20
:1047E0000A430092009AC261C161009AC261C26923
:1047F0000092C269009208BD0246002013690B4076
:104800000BB1012000E0002070470146086980B22A
:1048100070470246002053690B400BB1012000E0B5
:10482000002070470146486980B270470183704795
:10483000418370470AB1018300E0418370474161C1
:10484000704742694A4042617047F0B50023002436
:104850004D07ED0E02FA05F3CE1000F1200555F8D4
:1048600026504E07F70E0F26BE40B543CF1000F17D
:10487000200646F82750CE1000F1200555F82650A6
:1048800045EA0304CE1000F1200545F82640F0BDAE
:10489000000002400004024000080240000C0240F8
:1048A000001002400014024000180240001C0240A8
:1048B00000200240002402400028024010B50446B7
:1048C000F848844209D10121480500F09BFC0021F1
:1048D0004FF4001000F096FC18E0F348844209D130
:1048E0000121880500F08EFC00214FF4800000F0CB
:1048F00089FC0BE0ED48844208D10121C80500F095
:1049000081FC00214FF4000000F07CFC10BD2DE97B
:10491000FF4704460D460026B1460427DFF8908382
:10492000A6884FF6C0700640684600F0FCFADDF835
:104930000880E048B8FBF0F01FFA80F946EA090663
:10494000A68020884FF6FE71084020800026DA49B4
:10495000286888420CD828684000B8FBF0F087B27D
:10496000042F00DA04273E4309F10100208427E0E8
:10497000E8884BF6FF71884206D1286800EB4000BA
:10498000B8FBF0F087B209E0286800EBC00101EB4A
:104990000010B8FBF0F087B247F48047C7F30B0074
:1049A00008B947F0010747F4004006434FF49670FA
:1049B00009FB00F04FF47A7190FBF1F0401C208469
:1049C000A683208840F00100208026884FF6F5302D
:1049D0000640A8886989084306432680A889298952
:1049E00008432081BDE8FF8741F288310160002142
:1049F00081804BF6FF71C1800021018141814FF41C
:104A000080418181704721B1028842F00102028019
:104A100004E002884FF6FE731A400280704729B105
:104A2000828C4FF6EF731A40828403E0828C42F04E
:104A30001002828470470A460021818C4FF6F07381
:104A4000194002F00F0319438184704721B1028895
:104A500042F48072028004E002884FF6FF631A403D
:104A60000280704721B1028842F40072028004E0A3
:104A700002884FF6FF531A400280704712B141F08E
:104A8000010101E001F0FE010182704721B10288BD
:104A900042F48062028004E002884FF6FF331A403D
:104AA000028070470A46002181894FF60173194040
:104AB00002F0FE0319438181704721B1828942F0DF
:104AC0000102828104E082894FF6FE731A408281DE
:104AD000704721B1028842F04002028004E002885F
:104AE0004FF6BF731A400280704721B1028842F42A
:104AF0000042028003E00288C2F30E020280704787
:104B000021B9028842F08002028004E002884FF658
:104B10007F731A4002807047B1F5804F05D0828BB9
:104B20004BF6FF731A40828303E0828B42F480428B
:104B300082837047B1F5006F04D1028842F40062AD
:104B4000028004E002884FF2FF731A40028070472F
:104B5000B1F5005F04D1028842F40052028004E003
:104B600002884DF6FF731A400280704721B1028817
:104B700042F01002028004E002884FF6EF731A4000
:104B800002807047018270470146088AC0B27047B0
:104B900021B1028842F48052028004E002884EF67D
:104BA000FF731A4002807047B1F5006F04D102888C
:104BB00042F40062028004E002884FF2FF731A4060
:104BC0000280704721B1028842F02002028004E096
:104BD00002884FF6DF731A40028070470146088B47
:104BE0000012704721B1828842F40062828004E0A2
:104BF00082884FF2FF731A408280704721B1828809
:104C000042F48052828004E082884EF6FF731A409C
:104C10008280704708B502460020009000920098FC
:104C2000084400900098008808BD1AB183880B439F
:104C3000838002E083888B438380704770B502468F
:104C40000024002500230020958A138B1B0445EACD
:104C5000030626F07F4404EA01068E4201D10120BA
:104C600000E0002070BD10B50146002000230022A6
:104C70008B8A0A8B120443EA020424F07F4010BDA1
:104C80000CB50246002000230193009300920B0F05
:104C9000019321F07F41019B83B1009B143300936A
:104CA00010E000000054004000580040005C00404C
:104CB00000127A0040420F00A0860100090C009B00
:104CC00018330093009B1B680B400BB1012000E0E0
:104CD00000200CBD002221F07F42D3438382704725
:104CE00030B5024600200023948801F0E06504EA14
:104CF000154321F07F41948A0C4014B10BB101207F
:104D000000E0002030BD002221F07F42D3438382A7
:104D100070470000F948006840F00100F74908605A
:104D20000020F64908310860F4480068F44908405A
:104D3000F2490860F348091D0860F348EF498431DF
:104D40000860F0481038091D0860EC48006820F43D
:104D50008020EA4908600020E8490C310860E749F2
:104D60008C31086070470021E44A921C1170114692
:104D70000870704710B501460022002300204A1138
:104D8000012A02D1DD4C236808E0022A03D1DB4C62
:104D90007034236802E0D94C7434236801F01F0298
:104DA000012494401C400CB1012000E0002010BD03
:104DB00038B5002000900024002500BF3120FFF707
:104DC000D9FF05460098401C00900098B0F5A04F10
:104DD00001D0002DF2D03120FFF7CCFF08B1012423
:104DE00000E00024204638BD01460020C34A106878
:104DF00020F0F80040EAC10010607047C349086025
:104E000070470021BD4A703211701170012802D024
:104E100004280AD104E00121B84A7032117005E07B
:104E20000521B64A7032117000E000BF00BF704724
:104E3000B7490860704770B5049C41EA82150126A5
:104E4000C6EB530645EA0645054345EA0465AB4E05
:104E5000361D356070BDAD4908667047820142EA73
:104E60000172A64B84331A607047A8498866704760
:104E700010B5830143EA016343EA02739F4C88340F
:104E8000236010BDA14908677047A049C8647047F6
:104E900002460020994B0833186820F0EC6042EA83
:104EA00001031843954B08331860704702460020F1
:104EB000924B0833186820F0784042EA0103184307
:104EC0008E4B083318607047014600208B4A083229
:104ED000106820F0030008431060704787480830CE
:104EE000006800F00C00704701460020834A083239
:104EF000106820F0F0000843106070470146002061
:104F00007E4A0832106820F4E05008431060704771
:104F100001460020794A0832106820F4604040EAD7
:104F2000C10010607047F0B5002100220024022566
:104F300000260223714F08373F6807F00C0121B1AA
:104F4000042905D0082937D105E0724F076036E003
:104F5000714F076033E0694F3F1D3F68C7F38056CC
:104F6000664F3F1D3F6807F03F036EB16A4FB7FBC6
:104F7000F3F7DFF888C10CF1040CDCF800C0CCF3C7
:104F8000881C07FB0CF40CE0624FB7FBF3F7DFF86B
:104F90006CC10CF1040CDCF800C0CCF3881C07FBDE
:104FA0000CF4564F3F1D3F68C7F301477F1C7D003F
:104FB000B4FBF5F7076002E0564F076000BF00BF83
:104FC0004E4F08373F6807F0F0010909534F7A5CEC
:104FD0000768D7404760494F08373F6807F4E051FA
:104FE000890A4E4F7A5C4768D7408760434F08373D
:104FF0003F6807F46041490B484F7A5C4768D740E7
:10500000C760F0BD002100F44072B2F5407F0AD1C4
:105010003A4A0832116821F4F811414A024011431A
:10502000364A08321160354A70321268C0F30B03F9
:105030001A43324B70331A6070473549443908605F
:1050400070473349403908607047364908607047F7
:1050500001460020294A8C32106820F01F004A1EA9
:105060001043264A8C321060704701460020234AC4
:105070008C32106820F4F8504A1E40EA02201F4A81
:105080008C3210607047014600201C4A8C32106838
:1050900020F4401008431060704701460020174A72
:1050A0008C32106820F440000843106070470146BD
:1050B0000020124A8C32106820F4403008431060FF
:1050C000704719490860704739B10C4A303212688C
:1050D00002430A4B30331A6006E0084A3032126845
:1050E0008243064B30331A607047F9B1034A3432B9
:1050F00012680243014B34331A601CE0003802404E
:10510000FFFFF6EA10300024003000200000474284
:10511000800E47420024F40000127A008C01002027
:10512000FFFCFF0F5C014742E0114742854A1268CD
:105130008243844B1A60704739B1824A121D12684B
:105140000243804B1B1D1A6006E07E4A121D126846
:1051500082437C4B1B1D1A60704739B1794A0C326F
:1051600012680243774B0C331A6006E0754A0C3222
:1051700012688243734B0C331A60704739B1714A1D
:105180001032126802436F4B10331A6006E06D4A0A
:105190001032126882436B4B10331A60704739B17A
:1051A000684A243A12680243664B243B1A6006E0C0
:1051B000644A243A12688243624B243B1A60704767
:1051C00039B1604A203A126802435E4B203B1A60B4
:1051D00006E05C4A203A126882435A4B203B1A6030
:1051E000704739B1574A1C3A12680243554B1C3B71
:1051F0001A6006E0534A1C3A12688243514B1C3B2A
:105200001A60704739B14F4A143A126802434D4B45
:10521000143B1A6006E04B4A143A12688243494B29
:10522000143B1A60704739B1464A103A126802437B
:10523000444B103B1A6006E0424A103A126882431F
:10524000404B103B1A60704739B13E4A1C3212681D
:1052500002433C4B1C331A6006E03A4A1C32126887
:105260008243384B1C331A60704739B1354A2032BB
:1052700012680243334B20331A6006E0314A203271
:10528000126882432F4B20331A60704739B12D4A80
:105290002432126802432B4B24331A6006E0294A59
:1052A000243212688243274B24331A60704739B185
:1052B000244A2C3212680243224B2C331A6006E037
:1052C000204A2C32126882431E4B2C331A607047DE
:1052D00039B11C4A3032126802431A4B30331A601B
:1052E00006E0184A303212688243164B30331A6097
:1052F000704739B1134A273A12780243114B273BC2
:105300001A7006E00F4A273A127882430D4B273B6A
:105310001A7070470B484030006840F080700949AF
:1053200040310860704701460020064A283A12685A
:105330000A400AB1012000E00020704701492639E7
:10534000087070473438024010B50446F64884426D
:1053500008D101218014FFF766FF0021A014FFF798
:1053600062FF3CE0F148844208D101210014FFF7BC
:1053700049FF00212014FFF745FF30E0EC4884424C
:1053800008D10121C013FFF73DFF0021E013FFF713
:1053900039FF24E0E748844208D101214014FFF797
:1053A00042FF00216014FFF73EFF18E0E24884420C
:1053B00009D101210805FFF736FF00214FF48010C5
:1053C000FFF731FF0BE0DD48844208D10121480599
:1053D000FFF729FF00214FF40010FFF724FF10BD55
:1053E00010B50022028802F441520B884C882343F6
:1053F0008C882343CC8823430C8923434C89234343
:105400008C892343CC8923431A430280838B4FF238
:10541000FF74234083830B8A038210BD2DE9F04F74
:1054200000250223002401270022002694469046EE
:105430009146B0F81CA04FF2400B0AEA0B0AA0F804
:105440001CA04FF0020AA0F820A0858BD1F808A07C
:10545000BAF1020F01D100BF6CE0B1F804A0BAF1BB
:10546000000F01D1012700E00227DFF8D4A2DAF80B
:1054700000A00AF4000ABAF1000F09D0DFF8C0A2B8
:10548000DAF800A02AF4000ADFF8B4B2CBF800A0E2
:10549000DFF8ACA20AF17C0ADAF800A0CAF3881897
:1054A000DFF89CA20AF17C0ADAF800A0CAF30279BC
:1054B000DFF88CA2AAF1040ADAF800A00AF03F0C87
:1054C000DFF880A2BAFBFCFA0AFB08FABAFBF9F68D
:1054D000B1F806A0BAF5007F0ED14FEA162A0AEB02
:1054E0008A0A4FEA4A0AD1F808B0BAFBFBFA0AF175
:1054F000050A1FFA8AF20FE04FEA471AB6FBFAFADA
:105500000AEB8A0A4FEA4A0AD1F808B0BAFBFBFA5A
:105510000AF1050A1FFA8AF24FF00A0AB2FBFAF200
:1055200002F00104A2EB040ACAF34F034FF6FF7A1C
:105530000AEA0424022B01DBFF2B01DD02230024F5
:10554000B1F806A04AEA040A4AEA030AA0F820A031
:10555000B1F804A0B1F80CB04AEA0B0AB1F802B0F5
:105560004AEA0B0AB1F800B04AEA0B0A4AF4006AA8
:105570004AEA05058583BDE8F08F0021018041805E
:105580008180C180018141818181C18107210182A6
:1055900070470021018041808180C18002218160AB
:1055A00000218181704721B1028842F040020280CF
:1055B00004E002884FF6BF731A400280704721B1A1
:1055C000828B42F48062828304E0828B4FF6FF3349
:1055D0001A408283704702884FF2FF731A4002809C
:1055E00002880A4302807047B1F5804F04D10288D7
:1055F00042F48042028004E002884BF6FF731A40B6
:10560000028070474FF6FF62914204D0028842F454
:105610008072028004E002884FF6FF631A40028025
:10562000704721B1828842F00402828004E08288BF
:105630004FF6FB731A408280704721B1828842F096
:105640001002828004E082884FF6EF731A40828055
:10565000704730B500220023848B4FF240052C4068
:10566000848302240484828B0C88B4F5007F01D0EB
:105670000C8814B94FF4807308E00C88B4F5407FAF
:1056800003D00C88B4F5807F00D100238C888D89ED
:105690002C434D882C431C4344F4006422438283F2
:1056A00030BD0146888970478181704721B10288E9
:1056B00042F40052028004E002884DF6FF731A4063
:1056C00002807047018841F4805101807047024692
:1056D0000020012901D0108B00E0908A704701461C
:1056E000088A70471AB183880B43838002E083885D
:1056F0008B438380704730B5002400230C110125B3
:10570000A540ABB21AB185881D43858002E085882B
:105710009D43858030BD0246002013890B400BB1AC
:10572000012000E0002070470030014000380040B8
:10573000003C004000340140005001400054014052
:105740000838024000127A00CA4302817047F0B55F
:105750000246002000240023002501F00F07012647
:10576000BE40B4B20B1101269E40B3B2968806EA41
:1057700003051689264016B10DB1012000E0002076
:10578000F0BD10B5002201F00F040123A3409AB22E
:10579000D343038110BD032A40F2308010F0030C84
:1057A00000F0158011F8013BBCF1020F624498BF74
:1057B00011F801CB00F8013B38BF11F8013BA2F111
:1057C000040298BF00F801CB38BF00F8013B11F08C
:1057D000030300F03080083AC0F0088051F8043B21
:1057E000083A51F804CBA0E80810F5E7121D5CBF99
:1057F00051F8043B40F8043BAFF30080D20724BFCC
:1058000011F8013B11F801CB48BF11F8012B24BF5F
:1058100000F8013B00F801CB48BF00F8012B7047AE
:1058200002F0FF0343EA032242EA024200F037B8E3
:1058300070477047704710B5203AC0F00B80B1E850
:105840001850203AA0E81850B1E81850A0E81850B5
:10585000BFF4F5AF5FEA027C24BFB1E81850A0E8BE
:10586000185044BF18C918C0BDE810405FEA827CD8
:1058700024BF51F8043B40F8043B08BF7047D207EF
:1058800028BF31F8023B48BF11F8012B28BF20F890
:10589000023B48BF00F8012B70474FF0000204297B
:1058A000C0F0128010F0030C00F01B80CCF1040C4F
:1058B000BCF1020F18BF00F8012BA8BF20F8022B83
:1058C000A1EB0C0100F00DB85FEAC17C24BF00F829
:1058D000012B00F8012B48BF00F8012B70474FF057
:1058E000000200B5134694469646203922BFA0E830
:1058F0000C50A0E80C50B1F12001BFF4F7AF09073C
:1059000028BFA0E80C5048BF0CC05DF804EB89002C
:1059100028BF40F8042B08BF704748BF20F8022B6F
:1059200011F0804F18BF00F8012B7047754600F04A
:105930002BF8AE4605006946534620F00700854621
:1059400018B020B5FAF7FEFCBDE820404FF0000685
:105950004FF000074FF000084FF0000B21F0070157
:10596000AC46ACE8C009ACE8C009ACE8C009ACE89A
:10597000C0098D46704710B50446AFF3008020463D
:10598000BDE81040FAF769BC00487047302F01208D
:1059900001491820ABBEFEE7260002007047000058
:1059A00021F00042A2F16052B2F5801F01F00043E5
:1059B00028BFD2F17F6C0BD95FEA001C43EAC20218
:1059C00042EB507018BF704728BF20F001007047AD
:1059D000B2F5801FBCBF184670474FEA410C1CF55A
:1059E000001F02D2084600F0C1BB70B500F0D4F928
:1059F00000000089FFF7F6BF4FF00040A0F58000DF
:105A00007047000010B591EA030F48BF83F00043D0
:105A100000F15482841A71EB030C05D2121943EB86
:105A20000C03001B61EB0C01DFF824E14FEA115479
:105A3000A4EB135C1EEA430F18BF9EEA445F73D0C9
:105A400023EA0E03DCF1200E21EA045143F4801313
:105A500032D322FA0CFE10EB0E0023FA0CFE41EBBF
:105A60000E01CCF1200E03FA0EFE10EB0E0051F1E8
:105A70000001B1F5801FCCF1200E32D201EB0451B0
:105A800012FA0EF2BDE8104058BF7047401C38BFF4
:105A90005FEA420218BF7047002814BF20F00100DF
:105AA00041F100014FEA410313F5001F38BF704771
:105AB000A1F1C04100F0BEB9012A43EB0302ACF1F1
:105AC000200CDCF11F0E32BF4FF0000E23FA0CF356
:105AD00010EB030041EB0451B4EB115FD0D0A1EB0C
